{
  "contractName": "BlockSigma",
  "abi": [
    {
      "constant": false,
      "inputs": [
        {
          "name": "_spender",
          "type": "address"
        },
        {
          "name": "_value",
          "type": "uint256"
        }
      ],
      "name": "approve",
      "outputs": [
        {
          "name": "",
          "type": "bool"
        }
      ],
      "payable": false,
      "stateMutability": "nonpayable",
      "type": "function"
    },
    {
      "constant": true,
      "inputs": [],
      "name": "totalSupply",
      "outputs": [
        {
          "name": "",
          "type": "uint256"
        }
      ],
      "payable": false,
      "stateMutability": "view",
      "type": "function"
    },
    {
      "constant": false,
      "inputs": [
        {
          "name": "_from",
          "type": "address"
        },
        {
          "name": "_to",
          "type": "address"
        },
        {
          "name": "_value",
          "type": "uint256"
        }
      ],
      "name": "transferFrom",
      "outputs": [
        {
          "name": "",
          "type": "bool"
        }
      ],
      "payable": false,
      "stateMutability": "nonpayable",
      "type": "function"
    },
    {
      "constant": false,
      "inputs": [
        {
          "name": "_spender",
          "type": "address"
        },
        {
          "name": "_subtractedValue",
          "type": "uint256"
        }
      ],
      "name": "decreaseApproval",
      "outputs": [
        {
          "name": "",
          "type": "bool"
        }
      ],
      "payable": false,
      "stateMutability": "nonpayable",
      "type": "function"
    },
    {
      "constant": true,
      "inputs": [
        {
          "name": "_owner",
          "type": "address"
        }
      ],
      "name": "balanceOf",
      "outputs": [
        {
          "name": "",
          "type": "uint256"
        }
      ],
      "payable": false,
      "stateMutability": "view",
      "type": "function"
    },
    {
      "constant": true,
      "inputs": [],
      "name": "owner",
      "outputs": [
        {
          "name": "",
          "type": "address"
        }
      ],
      "payable": false,
      "stateMutability": "view",
      "type": "function"
    },
    {
      "constant": false,
      "inputs": [
        {
          "name": "_to",
          "type": "address"
        },
        {
          "name": "_value",
          "type": "uint256"
        }
      ],
      "name": "transfer",
      "outputs": [
        {
          "name": "",
          "type": "bool"
        }
      ],
      "payable": false,
      "stateMutability": "nonpayable",
      "type": "function"
    },
    {
      "constant": false,
      "inputs": [
        {
          "name": "_spender",
          "type": "address"
        },
        {
          "name": "_addedValue",
          "type": "uint256"
        }
      ],
      "name": "increaseApproval",
      "outputs": [
        {
          "name": "",
          "type": "bool"
        }
      ],
      "payable": false,
      "stateMutability": "nonpayable",
      "type": "function"
    },
    {
      "constant": true,
      "inputs": [
        {
          "name": "_owner",
          "type": "address"
        },
        {
          "name": "_spender",
          "type": "address"
        }
      ],
      "name": "allowance",
      "outputs": [
        {
          "name": "",
          "type": "uint256"
        }
      ],
      "payable": false,
      "stateMutability": "view",
      "type": "function"
    },
    {
      "inputs": [
        {
          "name": "_baseTokenAddress",
          "type": "address"
        },
        {
          "name": "_strike",
          "type": "uint256"
        },
        {
          "name": "_exp",
          "type": "uint256"
        },
        {
          "name": "_isPut",
          "type": "bool"
        },
        {
          "name": "_reserve",
          "type": "uint256"
        },
        {
          "name": "_bancorConverter",
          "type": "address"
        }
      ],
      "payable": false,
      "stateMutability": "nonpayable",
      "type": "constructor"
    },
    {
      "anonymous": false,
      "inputs": [
        {
          "indexed": true,
          "name": "to",
          "type": "address"
        },
        {
          "indexed": false,
          "name": "amount",
          "type": "uint256"
        }
      ],
      "name": "Issued",
      "type": "event"
    },
    {
      "anonymous": false,
      "inputs": [
        {
          "indexed": true,
          "name": "who",
          "type": "address"
        }
      ],
      "name": "Exercised",
      "type": "event"
    },
    {
      "anonymous": false,
      "inputs": [
        {
          "indexed": true,
          "name": "who",
          "type": "address"
        }
      ],
      "name": "Liquidated",
      "type": "event"
    },
    {
      "anonymous": false,
      "inputs": [],
      "name": "MintFinished",
      "type": "event"
    },
    {
      "anonymous": false,
      "inputs": [
        {
          "indexed": true,
          "name": "owner",
          "type": "address"
        },
        {
          "indexed": true,
          "name": "spender",
          "type": "address"
        },
        {
          "indexed": false,
          "name": "value",
          "type": "uint256"
        }
      ],
      "name": "Approval",
      "type": "event"
    },
    {
      "anonymous": false,
      "inputs": [
        {
          "indexed": true,
          "name": "from",
          "type": "address"
        },
        {
          "indexed": true,
          "name": "to",
          "type": "address"
        },
        {
          "indexed": false,
          "name": "value",
          "type": "uint256"
        }
      ],
      "name": "Transfer",
      "type": "event"
    },
    {
      "constant": false,
      "inputs": [
        {
          "name": "amount",
          "type": "uint256"
        }
      ],
      "name": "issue",
      "outputs": [
        {
          "name": "",
          "type": "bool"
        }
      ],
      "payable": true,
      "stateMutability": "payable",
      "type": "function"
    },
    {
      "constant": false,
      "inputs": [],
      "name": "exercise",
      "outputs": [
        {
          "name": "",
          "type": "bool"
        }
      ],
      "payable": true,
      "stateMutability": "payable",
      "type": "function"
    },
    {
      "constant": false,
      "inputs": [
        {
          "name": "to",
          "type": "address"
        }
      ],
      "name": "deliver",
      "outputs": [
        {
          "name": "",
          "type": "bool"
        }
      ],
      "payable": false,
      "stateMutability": "nonpayable",
      "type": "function"
    },
    {
      "constant": false,
      "inputs": [],
      "name": "forceLiquidation",
      "outputs": [
        {
          "name": "",
          "type": "bool"
        }
      ],
      "payable": false,
      "stateMutability": "nonpayable",
      "type": "function"
    },
    {
      "constant": false,
      "inputs": [
        {
          "name": "amount",
          "type": "uint256"
        }
      ],
      "name": "depositReserve",
      "outputs": [
        {
          "name": "",
          "type": "bool"
        }
      ],
      "payable": true,
      "stateMutability": "payable",
      "type": "function"
    },
    {
      "constant": true,
      "inputs": [],
      "name": "getRequiredReserve",
      "outputs": [
        {
          "name": "",
          "type": "uint256"
        }
      ],
      "payable": false,
      "stateMutability": "view",
      "type": "function"
    },
    {
      "constant": true,
      "inputs": [],
      "name": "isReserveLow",
      "outputs": [
        {
          "name": "",
          "type": "bool"
        }
      ],
      "payable": false,
      "stateMutability": "view",
      "type": "function"
    },
    {
      "constant": true,
      "inputs": [],
      "name": "getTokenPrice",
      "outputs": [
        {
          "name": "",
          "type": "uint256"
        }
      ],
      "payable": false,
      "stateMutability": "view",
      "type": "function"
    },
    {
      "constant": false,
      "inputs": [
        {
          "name": "_tokenPrice",
          "type": "uint256"
        }
      ],
      "name": "setTokenPrice",
      "outputs": [],
      "payable": false,
      "stateMutability": "nonpayable",
      "type": "function"
    }
  ],
  "bytecode": "0x608060405234801561001057600080fd5b5060405160c080611f0183398101806040528101908080519060200190929190805190602001909291908051906020019092919080519060200190929190805190602001909291908051906020019092919050505033600660016101000a81548173ffffffffffffffffffffffffffffffffffffffff021916908373ffffffffffffffffffffffffffffffffffffffff160217905550600060018190555085600360006101000a81548173ffffffffffffffffffffffffffffffffffffffff021916908373ffffffffffffffffffffffffffffffffffffffff160217905550846004819055508360058190555082600660006101000a81548160ff0219169083151502179055508160078190555080600860006101000a81548173ffffffffffffffffffffffffffffffffffffffff021916908373ffffffffffffffffffffffffffffffffffffffff1602179055506648f891015d3800600a81905550505050505050611d7f806101826000396000f3006080604052600436106100fc576000357c0100000000000000000000000000000000000000000000000000000000900463ffffffff168063095ea7b31461010157806318160ddd1461016657806323b872dd146101915780634b94f50e1461021657806366188463146102415780636a61e5fc146102a657806370a08231146102d35780638da5cb5b1461032a5780639a819e5e146103815780639ad0cce7146103b0578063a9059cbb146103df578063cc872b6614610444578063d32cb0fe1461047c578063d73dd6231461049e578063d9010b6e14610503578063dd62ed3e1461052e578063e515cd38146105a5578063f42d48a114610600575b600080fd5b34801561010d57600080fd5b5061014c600480360381019080803573ffffffffffffffffffffffffffffffffffffffff16906020019092919080359060200190929190505050610638565b604051808215151515815260200191505060405180910390f35b34801561017257600080fd5b5061017b61072a565b6040518082815260200191505060405180910390f35b34801561019d57600080fd5b506101fc600480360381019080803573ffffffffffffffffffffffffffffffffffffffff169060200190929190803573ffffffffffffffffffffffffffffffffffffffff16906020019092919080359060200190929190505050610734565b604051808215151515815260200191505060405180910390f35b34801561022257600080fd5b5061022b610aee565b6040518082815260200191505060405180910390f35b34801561024d57600080fd5b5061028c600480360381019080803573ffffffffffffffffffffffffffffffffffffffff16906020019092919080359060200190929190505050610af8565b604051808215151515815260200191505060405180910390f35b3480156102b257600080fd5b506102d160048036038101908080359060200190929190505050610d89565b005b3480156102df57600080fd5b50610314600480360381019080803573ffffffffffffffffffffffffffffffffffffffff169060200190929190505050610d93565b6040518082815260200191505060405180910390f35b34801561033657600080fd5b5061033f610ddb565b604051808273ffffffffffffffffffffffffffffffffffffffff1673ffffffffffffffffffffffffffffffffffffffff16815260200191505060405180910390f35b34801561038d57600080fd5b50610396610e01565b604051808215151515815260200191505060405180910390f35b3480156103bc57600080fd5b506103c56110c2565b604051808215151515815260200191505060405180910390f35b3480156103eb57600080fd5b5061042a600480360381019080803573ffffffffffffffffffffffffffffffffffffffff16906020019092919080359060200190929190505050611163565b604051808215151515815260200191505060405180910390f35b61046260048036038101908080359060200190929190505050611382565b604051808215151515815260200191505060405180910390f35b6104846115cb565b604051808215151515815260200191505060405180910390f35b3480156104aa57600080fd5b506104e9600480360381019080803573ffffffffffffffffffffffffffffffffffffffff16906020019092919080359060200190929190505050611736565b604051808215151515815260200191505060405180910390f35b34801561050f57600080fd5b50610518611932565b6040518082815260200191505060405180910390f35b34801561053a57600080fd5b5061058f600480360381019080803573ffffffffffffffffffffffffffffffffffffffff169060200190929190803573ffffffffffffffffffffffffffffffffffffffff1690602001909291905050506119d5565b6040518082815260200191505060405180910390f35b3480156105b157600080fd5b506105e6600480360381019080803573ffffffffffffffffffffffffffffffffffffffff169060200190929190505050611a5c565b604051808215151515815260200191505060405180910390f35b61061e60048036038101908080359060200190929190505050611c2c565b604051808215151515815260200191505060405180910390f35b600081600260003373ffffffffffffffffffffffffffffffffffffffff1673ffffffffffffffffffffffffffffffffffffffff16815260200190815260200160002060008573ffffffffffffffffffffffffffffffffffffffff1673ffffffffffffffffffffffffffffffffffffffff168152602001908152602001600020819055508273ffffffffffffffffffffffffffffffffffffffff163373ffffffffffffffffffffffffffffffffffffffff167f8c5be1e5ebec7d5bd14f71427d1e84f3dd0314c0f7b2291e5b200ac8c7c3b925846040518082815260200191505060405180910390a36001905092915050565b6000600154905090565b60008073ffffffffffffffffffffffffffffffffffffffff168373ffffffffffffffffffffffffffffffffffffffff161415151561077157600080fd5b6000808573ffffffffffffffffffffffffffffffffffffffff1673ffffffffffffffffffffffffffffffffffffffff1681526020019081526020016000205482111515156107be57600080fd5b600260008573ffffffffffffffffffffffffffffffffffffffff1673ffffffffffffffffffffffffffffffffffffffff16815260200190815260200160002060003373ffffffffffffffffffffffffffffffffffffffff1673ffffffffffffffffffffffffffffffffffffffff16815260200190815260200160002054821115151561084957600080fd5b61089a826000808773ffffffffffffffffffffffffffffffffffffffff1673ffffffffffffffffffffffffffffffffffffffff16815260200190815260200160002054611ccc90919063ffffffff16565b6000808673ffffffffffffffffffffffffffffffffffffffff1673ffffffffffffffffffffffffffffffffffffffff1681526020019081526020016000208190555061092d826000808673ffffffffffffffffffffffffffffffffffffffff1673ffffffffffffffffffffffffffffffffffffffff16815260200190815260200160002054611ce590919063ffffffff16565b6000808573ffffffffffffffffffffffffffffffffffffffff1673ffffffffffffffffffffffffffffffffffffffff168152602001908152602001600020819055506109fe82600260008773ffffffffffffffffffffffffffffffffffffffff1673ffffffffffffffffffffffffffffffffffffffff16815260200190815260200160002060003373ffffffffffffffffffffffffffffffffffffffff1673ffffffffffffffffffffffffffffffffffffffff16815260200190815260200160002054611ccc90919063ffffffff16565b600260008673ffffffffffffffffffffffffffffffffffffffff1673ffffffffffffffffffffffffffffffffffffffff16815260200190815260200160002060003373ffffffffffffffffffffffffffffffffffffffff1673ffffffffffffffffffffffffffffffffffffffff168152602001908152602001600020819055508273ffffffffffffffffffffffffffffffffffffffff168473ffffffffffffffffffffffffffffffffffffffff167fddf252ad1be2c89b69c2b068fc378daa952ba7f163c4a11628f55a4df523b3ef846040518082815260200191505060405180910390a3600190509392505050565b6000600a54905090565b600080600260003373ffffffffffffffffffffffffffffffffffffffff1673ffffffffffffffffffffffffffffffffffffffff16815260200190815260200160002060008573ffffffffffffffffffffffffffffffffffffffff1673ffffffffffffffffffffffffffffffffffffffff16815260200190815260200160002054905080831115610c09576000600260003373ffffffffffffffffffffffffffffffffffffffff1673ffffffffffffffffffffffffffffffffffffffff16815260200190815260200160002060008673ffffffffffffffffffffffffffffffffffffffff1673ffffffffffffffffffffffffffffffffffffffff16815260200190815260200160002081905550610c9d565b610c1c8382611ccc90919063ffffffff16565b600260003373ffffffffffffffffffffffffffffffffffffffff1673ffffffffffffffffffffffffffffffffffffffff16815260200190815260200160002060008673ffffffffffffffffffffffffffffffffffffffff1673ffffffffffffffffffffffffffffffffffffffff168152602001908152602001600020819055505b8373ffffffffffffffffffffffffffffffffffffffff163373ffffffffffffffffffffffffffffffffffffffff167f8c5be1e5ebec7d5bd14f71427d1e84f3dd0314c0f7b2291e5b200ac8c7c3b925600260003373ffffffffffffffffffffffffffffffffffffffff1673ffffffffffffffffffffffffffffffffffffffff16815260200190815260200160002060008873ffffffffffffffffffffffffffffffffffffffff1673ffffffffffffffffffffffffffffffffffffffff168152602001908152602001600020546040518082815260200191505060405180910390a3600191505092915050565b80600a8190555050565b60008060008373ffffffffffffffffffffffffffffffffffffffff1673ffffffffffffffffffffffffffffffffffffffff168152602001908152602001600020549050919050565b600660019054906101000a900473ffffffffffffffffffffffffffffffffffffffff1681565b600080600960009054906101000a900473ffffffffffffffffffffffffffffffffffffffff169050600b60008273ffffffffffffffffffffffffffffffffffffffff1673ffffffffffffffffffffffffffffffffffffffff16815260200190815260200160002054610ec16000803373ffffffffffffffffffffffffffffffffffffffff1673ffffffffffffffffffffffffffffffffffffffff16815260200190815260200160002054610eb3611932565b611d0190919063ffffffff16565b1180610f135750620151804203600d60003373ffffffffffffffffffffffffffffffffffffffff1673ffffffffffffffffffffffffffffffffffffffff16815260200190815260200160002060010154105b1515610f1e57600080fd5b3373ffffffffffffffffffffffffffffffffffffffff166108fc600b60008473ffffffffffffffffffffffffffffffffffffffff1673ffffffffffffffffffffffffffffffffffffffff168152602001908152602001600020549081150290604051600060405180830381858888f19350505050158015610fa3573d6000803e3d6000fd5b506000803373ffffffffffffffffffffffffffffffffffffffff1673ffffffffffffffffffffffffffffffffffffffff16815260200190815260200160002060009055600d60003373ffffffffffffffffffffffffffffffffffffffff1673ffffffffffffffffffffffffffffffffffffffff16815260200190815260200160002060008082016000905560018201600090555050600b60008273ffffffffffffffffffffffffffffffffffffffff1673ffffffffffffffffffffffffffffffffffffffff168152602001908152602001600020600090553373ffffffffffffffffffffffffffffffffffffffff167f1e1ef858062a7196d1891e397a5cde9891e6ddf61a81e9d269a3aaa7a95dacd860405160405180910390a25090565b600061111d600c60003373ffffffffffffffffffffffffffffffffffffffff1673ffffffffffffffffffffffffffffffffffffffff1681526020019081526020016000205461110f611932565b611d0190919063ffffffff16565b600b60003373ffffffffffffffffffffffffffffffffffffffff1673ffffffffffffffffffffffffffffffffffffffff1681526020019081526020016000205410905090565b60008073ffffffffffffffffffffffffffffffffffffffff168373ffffffffffffffffffffffffffffffffffffffff16141515156111a057600080fd5b6000803373ffffffffffffffffffffffffffffffffffffffff1673ffffffffffffffffffffffffffffffffffffffff1681526020019081526020016000205482111515156111ed57600080fd5b61123e826000803373ffffffffffffffffffffffffffffffffffffffff1673ffffffffffffffffffffffffffffffffffffffff16815260200190815260200160002054611ccc90919063ffffffff16565b6000803373ffffffffffffffffffffffffffffffffffffffff1673ffffffffffffffffffffffffffffffffffffffff168152602001908152602001600020819055506112d1826000808673ffffffffffffffffffffffffffffffffffffffff1673ffffffffffffffffffffffffffffffffffffffff16815260200190815260200160002054611ce590919063ffffffff16565b6000808573ffffffffffffffffffffffffffffffffffffffff1673ffffffffffffffffffffffffffffffffffffffff168152602001908152602001600020819055508273ffffffffffffffffffffffffffffffffffffffff163373ffffffffffffffffffffffffffffffffffffffff167fddf252ad1be2c89b69c2b068fc378daa952ba7f163c4a11628f55a4df523b3ef846040518082815260200191505060405180910390a36001905092915050565b600061139e82611390611932565b611d0190919063ffffffff16565b34101515156113ac57600080fd5b34600b60003373ffffffffffffffffffffffffffffffffffffffff1673ffffffffffffffffffffffffffffffffffffffff1681526020019081526020016000208190555061144282600c60003373ffffffffffffffffffffffffffffffffffffffff1673ffffffffffffffffffffffffffffffffffffffff16815260200190815260200160002054611ce590919063ffffffff16565b600c60003373ffffffffffffffffffffffffffffffffffffffff1673ffffffffffffffffffffffffffffffffffffffff1681526020019081526020016000208190555033600960006101000a81548173ffffffffffffffffffffffffffffffffffffffff021916908373ffffffffffffffffffffffffffffffffffffffff1602179055506114db82600154611ce590919063ffffffff16565b600181905550611532826000803373ffffffffffffffffffffffffffffffffffffffff1673ffffffffffffffffffffffffffffffffffffffff16815260200190815260200160002054611ce590919063ffffffff16565b6000803373ffffffffffffffffffffffffffffffffffffffff1673ffffffffffffffffffffffffffffffffffffffff168152602001908152602001600020819055503373ffffffffffffffffffffffffffffffffffffffff167fa59f12e354e8cd10bb74c559844c2dd69a5458e31fe56c7594c62ca57480509a836040518082815260200191505060405180910390a260019050919050565b600080600554421015156115de57600080fd5b6116316004546000803373ffffffffffffffffffffffffffffffffffffffff1673ffffffffffffffffffffffffffffffffffffffff16815260200190815260200160002054611d0190919063ffffffff16565b905080341015151561164257600080fd5b60408051908101604052806000803373ffffffffffffffffffffffffffffffffffffffff1673ffffffffffffffffffffffffffffffffffffffff16815260200190815260200160002054815260200142815250600d60003373ffffffffffffffffffffffffffffffffffffffff1673ffffffffffffffffffffffffffffffffffffffff16815260200190815260200160002060008201518160000155602082015181600101559050503373ffffffffffffffffffffffffffffffffffffffff167f7bb67b8c2c55eb4481f2155ad6b5f050ac1de6c7c25fbb11eca90efb3d6ec35c60405160405180910390a2600191505090565b60006117c782600260003373ffffffffffffffffffffffffffffffffffffffff1673ffffffffffffffffffffffffffffffffffffffff16815260200190815260200160002060008673ffffffffffffffffffffffffffffffffffffffff1673ffffffffffffffffffffffffffffffffffffffff16815260200190815260200160002054611ce590919063ffffffff16565b600260003373ffffffffffffffffffffffffffffffffffffffff1673ffffffffffffffffffffffffffffffffffffffff16815260200190815260200160002060008573ffffffffffffffffffffffffffffffffffffffff1673ffffffffffffffffffffffffffffffffffffffff168152602001908152602001600020819055508273ffffffffffffffffffffffffffffffffffffffff163373ffffffffffffffffffffffffffffffffffffffff167f8c5be1e5ebec7d5bd14f71427d1e84f3dd0314c0f7b2291e5b200ac8c7c3b925600260003373ffffffffffffffffffffffffffffffffffffffff1673ffffffffffffffffffffffffffffffffffffffff16815260200190815260200160002060008773ffffffffffffffffffffffffffffffffffffffff1673ffffffffffffffffffffffffffffffffffffffff168152602001908152602001600020546040518082815260200191505060405180910390a36001905092915050565b600080600080915060009050600660009054906101000a900460ff161561198857611981611972611961610aee565b600454611ccc90919063ffffffff16565b83611d3990919063ffffffff16565b90506119b9565b6119b66119a7600454611999610aee565b611ccc90919063ffffffff16565b83611d3990919063ffffffff16565b90505b6119ce81600754611ce590919063ffffffff16565b9250505090565b6000600260008473ffffffffffffffffffffffffffffffffffffffff1673ffffffffffffffffffffffffffffffffffffffff16815260200190815260200160002060008373ffffffffffffffffffffffffffffffffffffffff1673ffffffffffffffffffffffffffffffffffffffff16815260200190815260200160002054905092915050565b60008060008373ffffffffffffffffffffffffffffffffffffffff1673ffffffffffffffffffffffffffffffffffffffff168152602001908152602001600020600090553373ffffffffffffffffffffffffffffffffffffffff166108fc611b62600b60003373ffffffffffffffffffffffffffffffffffffffff1673ffffffffffffffffffffffffffffffffffffffff16815260200190815260200160002054611b54600454600d60008973ffffffffffffffffffffffffffffffffffffffff1673ffffffffffffffffffffffffffffffffffffffff16815260200190815260200160002060000154611d0190919063ffffffff16565b611ce590919063ffffffff16565b9081150290604051600060405180830381858888f19350505050158015611b8d573d6000803e3d6000fd5b50600d60008373ffffffffffffffffffffffffffffffffffffffff1673ffffffffffffffffffffffffffffffffffffffff16815260200190815260200160002060008082016000905560018201600090555050600b60003373ffffffffffffffffffffffffffffffffffffffff1673ffffffffffffffffffffffffffffffffffffffff1681526020019081526020016000206000905560019050919050565b6000611c8034600b60003373ffffffffffffffffffffffffffffffffffffffff1673ffffffffffffffffffffffffffffffffffffffff16815260200190815260200160002054611ce590919063ffffffff16565b600b60003373ffffffffffffffffffffffffffffffffffffffff1673ffffffffffffffffffffffffffffffffffffffff1681526020019081526020016000208190555060019050919050565b6000828211151515611cda57fe5b818303905092915050565b60008183019050828110151515611cf857fe5b80905092915050565b600080831415611d145760009050611d33565b8183029050818382811515611d2557fe5b04141515611d2f57fe5b8090505b92915050565b600081831015611d495781611d4b565b825b9050929150505600a165627a7a72305820f5dda1475f95923d01b3831b1e75020fe1709b0961f5f5babb47bfc8a577e3370029",
  "source": "pragma solidity ^0.4.17;\n\nimport \"zeppelin-solidity/contracts/token/ERC20/StandardToken.sol\";\nimport \"zeppelin-solidity/contracts/math/Math.sol\";\n\ncontract BancorConverter {\n    function getReturn(address _fromToken, address _toToken, uint256 _amount) public view returns (uint256);\n}\n\ncontract BlockSigma is StandardToken {\n    using Math for uint256;\n\n    address baseTokenAddress;\n    uint256 strike;\n    uint256 exp;\n    bool isPut;\n    address public owner;\n    uint256 reserve;\n    address bancorConverter;\n    address mainIssuer;\n    uint256 tokenPrice; // For testing\n\n    struct ExerciseInfo {\n        uint256 amount;\n        uint256 timestamp;\n    }\n\n    mapping(address => uint256) reserves;\n    mapping(address => uint256) issues;\n    mapping(address => ExerciseInfo) exercises;\n\n\n    event Issued(address indexed to, uint256 amount);\n    event Exercised(address indexed who);\n    event Liquidated(address indexed who);\n    event MintFinished();\n\n    function BlockSigma(address _baseTokenAddress,\n        uint256 _strike, uint256 _exp, bool _isPut, uint256 _reserve, address _bancorConverter) public {\n        owner = msg.sender;\n        totalSupply_ = 0;\n        baseTokenAddress = _baseTokenAddress;\n        strike = _strike;\n        exp = _exp;\n        isPut = _isPut;\n        reserve = _reserve;\n        bancorConverter = _bancorConverter;\n        tokenPrice = 20539500000000000; // TODO: For testing purposes, remove\n    }\n\n    function issue(uint256 amount) public payable returns (bool) {\n        require(msg.value >= getRequiredReserve().mul(amount));\n        reserves[msg.sender] = msg.value;\n        issues[msg.sender] = issues[msg.sender].add(amount); // don't agree\n        mainIssuer = msg.sender;\n\n        totalSupply_ = totalSupply_.add(amount);\n        balances[msg.sender] = balances[msg.sender].add(amount);\n        emit Issued(msg.sender, amount);\n        return true;\n    }\n\n    function exercise() public payable returns (bool) {\n        require(block.timestamp < exp);\n        uint256 requiredFunds = balances[msg.sender].mul(strike);\n        require(msg.value >= requiredFunds);\n        exercises[msg.sender] = ExerciseInfo({\n            amount: balances[msg.sender],\n            timestamp: block.timestamp\n        });\n        Exercised(msg.sender);\n        return true;\n    }\n\n    function deliver(address to) returns (bool) {\n        // baseTokenAddress.call(bytes4(sha3(\"transferFrom(address,address,uint256)\")), msg.sender, to, balances[to]);\n        delete balances[to];\n        msg.sender.transfer(exercises[to].amount.mul(strike).add(reserves[msg.sender]));\n        delete exercises[to];\n        delete reserves[msg.sender];\n        return true;\n    }\n\n    function forceLiquidation() returns (bool) {\n        address issuer = mainIssuer; // TODO: temporary hack\n        require(getRequiredReserve().mul(balances[msg.sender]) > reserves[issuer] ||\n            exercises[msg.sender].timestamp < block.timestamp - 86400);\n\n        // Transfer reserve to buyer\n        msg.sender.transfer(reserves[issuer]);\n        delete balances[msg.sender];\n        delete exercises[msg.sender];\n        delete reserves[issuer];\n        Liquidated(msg.sender);\n    }\n\n    function depositReserve(uint256 amount) public payable returns (bool) {\n        reserves[msg.sender] = reserves[msg.sender].add(msg.value);\n        return true;\n    }\n\n    function getRequiredReserve() public view returns (uint256) {\n        uint256 zero = 0;\n        uint256 profit = 0;\n        if (isPut) {\n            profit = zero.max256(strike.sub(getTokenPrice()));\n        } else {\n            profit = zero.max256(getTokenPrice().sub(strike));\n        }\n\n        return reserve.add(profit);\n    }\n\n    function isReserveLow() public view returns (bool) {\n        return reserves[msg.sender] < getRequiredReserve().mul(issues[msg.sender]);\n    }\n\n    function getTokenPrice() public view returns (uint256) {\n        /*uint256 oneEther = 1000000000000000000;\n        BancorConverter ethToBtnConverter = BancorConverter(0xc6725aE749677f21E4d8f85F41cFB6DE49b9Db29);\n        uint256 ethToBtn = bancor.getReturn(0xc0829421C1d260BD3cB3E0F06cfE2D52db2cE315,\n            0x1F573D6Fb3F13d689FF844B4cE37794d79a7FF1C,\n            oneEther);\n\n        BancorConverter btnToEosConverter = BancorConverter(0x0d8746c7bfac7494904d4133c550c72b02c7cdbb);\n        uint256 btnToEos = bancor.getReturn(0x1F573D6Fb3F13d689FF844B4cE37794d79a7FF1C,\n            baseTokenAddress,\n            ethToBtn);\n\n        return oneEther.mul(oneEther).div(btnToEos);*/\n        return tokenPrice; // For testing\n    }\n\n    function setTokenPrice(uint256 _tokenPrice) public {\n      tokenPrice = _tokenPrice;\n    }\n}\n",
  "sourcePath": "/Users/andreianisimov/projects/8base/blocksigma/solidity/contracts/BlockSigma.sol",
  "compiler": {
    "name": "solc",
    "version": "0.4.23+commit.124ca40d.Emscripten.clang"
  },
  "schemaVersion": "2.0.0",
  "updatedAt": "2018-05-13T13:34:42.684Z"
}